:0A0000000C9469000C9400000C94AD
:10000A0000000C9400000C9400000C9400000C9466
:10001A0000000C9400000C9400000C9400000C9456
:10002A0000000C9400000C9400000C9400000C9446
:10003A0000000C9400000C9400000C9400000C9436
:10004A0000000C9400000C9400001027E8036400E0
:10005A000A0001000010000110000100FEFDFBF77C
:10006A00065B005072657373204F4E2F4320746FE6
:10007A002073746172742067616D653A2900256482
:10008A0000582077696E21004F2077696E2100445D
:10009A007261770080C00400B30166000200B901F2
:1000AA006A00010060016C001B0061016D0007001D
:1000BA007C018B0007008301920005008A019900E8
:1000CA000200BB019E000000F894EE27ECBBF1E0B1
:1000DA00FBBFEBBFE5BF8DE0A2E0BB27ED938A959E
:1000EA00E9F780E094E0A0E6ED930197E9F7E0EA0A
:1000FA00F0E085919591009761F0A591B5910590F1
:10010A001590BF01F00105900D920197E1F7FB01EF
:10011A00F0CFEFE5EDBFE4E0EEBFC0E6D1E00C942E
:10012A00CC01AA24BB24E4E0F0E0AE16BF0694F5A5
:10013A006F01A3EBB1E0AA0DBB1DEC91E5BBEFE0AB
:10014A00E4BB9C9902C0CC24DD249D9903C0E1E064
:10015A00F0E06F019E9903C0E2E0F0E06F019F9921
:10016A0003C0E3E0F0E06F01E4E0F0E0EC15FD0528
:10017A0049F09C9BFECF9D9BFECF9E9BFECF9F9BF3
:10018A00FECF0895A5E0B0E00E94B105F5013196D1
:10019A005F01C9CFC6CF4424552466247724882416
:1001AA009924E7EBF1E0FA93EA93A0E6B1E00E9422
:1001BA001304AA24BB240E941F058CF4CC24DD243A
:1001CA000E94240544F40E9429050E943705F6017D
:1001DA0031966F01F5CFF50131965F01ECCFAA2474
:1001EA00BB240E943C0534F40E944105F501319676
:1001FA005F01F7CFAA24BB24CC24DD240E948D04FE
:10020A00A1E6B1E00E94C9040E9449050E94550571
:10021A001C97D1F70E948D04E3E0F0E05F0100240F
:10022A000A140B04FCF4E7EBF1E0FA93EA93E8E82A
:10023A00F0E0FA93EA93F5010E94C8050E94E205EC
:10024A0084E00E94DF032896A7EBB1E00E94C9046C
:10025A00A4E6B0E00E94B1050E948D04F501319731
:10026A005F01DDCF0E945A0508950E948D04AA24D9
:10027A00BB240E941F0544F5CC24DD240E942405DA
:10028A00FCF4CA92AA2D0E9479040E9429050E94B0
:10029A00DA05E130A0E0FA0711F4A8E50BC00E94E4
:1002AA0029050E94DA05EF3FAFEFFA0711F4AFE430
:1002BA0001C0ADE20E94A204F60131966F01DECFC1
:1002CA00F50131965F01D5CF0895AA24BB240E9477
:1002DA003C0534F40E944105F50131965F01F7CFE0
:1002EA00AA24BB240E941F050CF050C0CC24DD2494
:1002FA000E9424050CF046C00E946105EA0FFB1F0C
:10030A00CF01608171810E9429050E946705F5016C
:10031A003396A1EAB1E0EE0FFF1FEA0FFB1FCF01F0
:10032A0060817181F6010E946F050E946705CA14F7
:10033A00DB0479F4F5010E946F050E94DA05A091A9
:10034A00AD01B091AE01EA0FFB1FE093AD01F0934E
:10035A00AE01F601EA0DFB1DE230A0E0FA0771F4E6
:10036A000E9429050E94DA05A091AF01B091B0015F
:10037A00EA0FFB1FE093AF01F093B001F60131964B
:10038A006F01B6CFF50131965F01ACCF0895EFEF5B
:10039A00E5BBEFE0E4BBE0E0E8BBEFEFEABBA4E1DA
:1003AA000E94EB04F8DE61DF082C092809F069C015
:1003BA00B8DEE3E0F0E0EA15FB0519F0EC15FD05FF
:1003CA0009F41EC00E9429050E94DA053097C1F47B
:1003DA00042C052829F40E942905E1E0F0E004C074
:1003EA000E942905EFEFFFEFED93FC93F2010E94C3
:1003FA00CD054E2E55240E945A05F30131963F0130
:10040A00F5010E94C305EC0DFD1DE093B101F093C7
:10041A00B2010E9455051D9709F4BDDE26DF55DF9E
:10042A00AA24BB240E943C05F4F40E946105AE0F85
:10043A00BF1F0E94DA05E330A0E0FA0719F4E1E0F1
:10044A00F0E00CC00E946105AE0FBF1F0E94DA05E2
:10045A00ED3FAFEFFA0719F4EFEFFFEF4F01F501A8
:10046A0031965F01DFCFE9E0F0E0E615F70521F408
:10047A0000240814090409F003C0E2E0F0E04F0187
:10048A0093CFE9E0EA93A3E00E947904E1E0F0E087
:10049A00E815F90519F4ACE7B1E00FC0EFEFFFEF8B
:1004AA00E815F90519F4A3E8B1E007C0E2E0F0E0C5
:1004BA00E815F90521F4AAE8B1E00E94C9040E94EE
:1004CA0049050E9455051D9709F465DEF8CFFFCF4F
:1004DA00BA93AA931A930A93AA81BB8112960E948D
:1004EA00DA05309759F1AA81BB8114960E94DA0580
:1004FA008F01309761F00230E0E01E0798F0F801B2
:10050A0031978F01AA81BB811496ED93FC93AA813E
:10051A00BB811296ED91FD913196FE93EE93319740
:10052A00AC81A083AA81BB810E94DA05FF232AF04D
:10053A00ED91FD913196FE93EE9306C0AA81BB819F
:10054A00EFEFFFEFED93FC9319810881259608954B
:10055A00BA93AA9326970E94E70510E0AC85BD8559
:10056A000E943705EA89FB893196EA8BFB8B319722
:10057A00E4912E2FE03009F415C1E12FE03039F46F
:10058A00253211F411E002C00E947C050AC1E13053
:10059A00A9F4253219F40E947C0502C112E040E058
:1005AA0000E02D3211F401E0FCC02B3211F44BE2D1
:1005BA00F8C0203211F440E2F4C002C0E23039F44B
:1005CA0050E013E0203311F40068EBC003C0E330BD
:1005DA0009F0E7C0203310F02A3308F007C0AAE078
:1005EA005A9F502DE22FE0535E0FDBC0E22FE33615
:1005FA0049F40E948305E889F989A481AA930E9493
:10060A008905CEC0E33741F40E9483050E948F0515
:10061A000E9420041E2F0AC0E03761F40E9483055D
:10062A000E948F050E942C041E2F086002600F771B
:10063A0030E034C0E43611F0E93611F4046002C047
:10064A00E53731F4E4E5F0E0EE83FF8315E00CC012
:10065A00E83511F4086003C0E83709F0A1C0EEE5F7
:10066A00F0E0EE83FF8314E002FF14C00E948305CA
:10067A000E949905AB85AA233AF4EA85FB850E9474
:10068A00BF05EA87FB874DE2403011F01F5F01C0CA
:10069A000B7F04C00E9483050E94990500FD11C0CA
:1006AA00151778F407FF08C002FF04C00B7F242F38
:1006BA00115001C020E301C020E20E947C05515084
:1006CA00EFCF312F01FF17C03030A1F003FF06C072
:1006DA00EE81FF812591EE83FF8305C0AE81BF8144
:1006EA002D91AE83BF830E947C05503009F0515092
:1006FA003150EACF4BC020E3EE81FF810E94DE0534
:10070A00E887F987EE81FF813296EE83FF83E885D9
:10071A00F985AA85BB85AE17BF0750F02F5FA8855C
:10072A00B985EA85FB85EA1BFB0BEA87FB87EFCFD6
:10073A002A3328F003FF02C0295F01C0295D04FDA6
:10074A001AC0213320F4A885B985119709F409C084
:10075A00531710F000FF01C013C020E207FF0BC0BF
:10076A0020E3006102FF07C00B7F4A930E948905BC
:10077A00503009F051500E947C05503009F0515018
:10078A003150A885B985129708F0B5CF00FF08C087
:10079A00503031F05150E0E2EA930E948905F8CFD7
:1007AA0010E0E0CEAC85BD850E94DA050E94EE0518
:1007BA0064960895FF92F82E26970E94E9050E94F2
:1007CA00A105309719F4EFEFFFEF23C0DE0116966B
:1007DA000E94BB058D010E94A105EE83FF83E0E024
:1007EA00E887E987DE011A960E94BB050E94DA05AE
:1007FA00FA93EA931A930A93EDE6F2E0FA93EA93EC
:10080A00DE011A96A5DE9F01AE81BF81E0E0EC937E
:10081A00F9010E94F0052A96FF900895BA93AA93C7
:10082A00E991F991A991B991CD0161916D936623ED
:10083A00E1F7FC010895BA93AA93A991B991EE2719
:10084A00FF276D91662311F03196FBCF0895BA9375
:10085A00AA93AA27BB27E991F9910590002011F0E4
:10086A001196FBCFFD010895FFE0FA95F1F708957F
:10087A00A1B3AF70A1BB919A9098F6DF929AF4DF78
:10088A00A0B39298F1DF929AEFDF9298A7FDF5CF85
:10089A000895A07FAB2BA2BB929A0E94390492982A
:1008AA000E9439040895AA939198A1B3A76FA1BB96
:1008BA00B2B3BF70A881EDDFA881A295EADF919A51
:1008CA000C941D05929A0E943904E0B392980E94F2
:1008DA003904E07F08950E943904F4DFAE2FF2DF75
:1008EA009198E295EA2B0895AA930E943D04E88123
:1008FA00F0E0E554FE4FE081A981AE0F0E94580452
:10090A00E981E093BF01E881E093C001229608954E
:10091A000E943D04A2E00E9458040E943D04ACE0FB
:10092A000E9458040E943D04A1E00E945804E0E09D
:10093A00E093C001E093BF010895AA93EF93FF9358
:10094A00A8816894AA3039F0E894E091C101A09195
:10095A00BF01AE1758F0E091C001EF5FE093C0010C
:10096A00E0E0EA93A091C001BFDF56F0E091BF0139
:10097A00EF5FE093BF017CDF909AA8810E94580440
:10098A00FF91EF910C941D05BA93AA931A93A9812A
:10099A00BA81ED91A983BA831E2FE03019F0A12FF5
:1009AA00CCDFF5CF188123960895AA27BB27119784
:1009BA00F1F70895AA939198A1B3A76FA1BBB2B317
:1009CA00BF70A8810E944E04919A32C0AA9392984D
:1009DA009098E881E093C101E058E093BD01E88175
:1009EA00E054E093BE010E94A8050E94A8050E9457
:1009FA00A805DBDFA0E2DEDFD8DFA8E20E94AD05B2
:100A0A00A4E00E94AD05A5E80E94AD05A1B3AF70B0
:100A1A00A1BB919A0E947004E53011F0E0E008C091
:100A2A000E943D04A6E00E9458040E948D04E1E061
:100A3A0021960895E3E0F0E0AE16BF060895E3E0DC
:100A4A00F0E0CE16DF060895F501A6E0B0E00E94B8
:100A5A00D205E157FE4FDF01F601EE0FFF1FAE0F81
:100A6A00BF1F0895E0E0F0E0ED93FC930895E8E0FD
:100A7A00F0E0AE16BF060895F501A1EAB1E0EE0F67
:100A8A00FF1FAE0FBF1FEECF0E949600F5010E9416
:100A9A00C305EC0DFD1DE093B101F093B201089579
:100AAA00A091B101B091B2010895A9EBB1E0A40DF2
:100ABA00B51DEC91EBBB0895F501A1EAB1E0EE0F8B
:100ACA00FF1F08950E94DA05E60FF71FDC01ED9378
:100ADA00FC930895A6E0B0E00E94D205E157FE4FCC
:100AEA00DF01F501EE0FFF1FAE0FBF1F08952A9316
:100AFA00AD85BE85EF85F88909950895E889F98954
:100B0A003497E88BF98B0895AD85BE85EF85F88912
:100B1A0009950895A889B98914960E94DA05EE8381
:100B2A00FF83AE81BF810895A889B98914960E946E
:100B3A00DA05EA87FB870895DE011C960E94BB0549
:100B4A000E94DA0508950E94DA04A0E30C94DF04F7
:100B5A000E9458040C94DA04109639F080ED97E05C
:100B6A000197F1F7A8951197C9F708950024AF0DD9
:100B7A00B01D0895F195E195F0400895EE0FFF1F1D
:100B8A00EE0FFF1F08956F2F660F660B762F0895DD
:100B9A00EF2BE1E009F0E0E00895FA9FF02DEB9FDA
:100BAA00F00DEA9FE02DF10D0895ED91FC9111975A
:100BBA0008950590F491E02D08957A936A93FA9333
:100BCA00EA9308955A934A933A932A931A930A9363
:100BDA0008955D814C813B812A811981088108959C
:00000001FF
